:020000040800F2
:1000000050A700206502000849200008491F000889
:1000100045200008A1040008F54800080000000081
:100020000000000000000000000000005D2000084B
:100030000D0600080000000059200008612000089B
:100040007F0200087F0200087F0200087F0200088C
:100050007F0200087F0200087F0200087F0200087C
:100060007F0200087F0200087F0200087F0200086C
:100070007F0200087F0200087F0200087F0200085C
:100080007F0200087F0200087F02000800000000D5
:100090000000000000000000000000007F020008D7
:1000A0007F0200087F0200087F0200087F0200082C
:1000B0007F0200087F0200087F0200087F0200081C
:1000C0007F0200087F0200087F0200087F0200080C
:1000D0007F0200087F0200087F0200080000000085
:1000E0007F0200087F0200087F0200080000000075
:1000F0000000000000000000000000007F02000877
:10010000000000007F0200087F0200087F02000854
:1001100000000000000000000000000000000000DF
:100120007F0200087F0200087F0200087F020008AB
:100130007F02000800000000000000000000000036
:100140000000000000000000000000004D2000083A
:100150007F0200087F0200087F0200087F0200087B
:100160007F0200087F02000800000000000000007D
:10017000000000000000000000000000000000007F
:10018000000000007F0200080000000000000000E6
:100190007F0200087F02000800F002F800F052F829
:1001A00014A696E8000CB244B344DA4501D100F03D
:1001B00049F8BAE80F000FA696E83000A5EB040551
:1001C00004EB0607AAEB0704A7F101074FEA151590
:1001D0004FEA3414A4F10104AC4201D300F032F828
:1001E00013F0010F18BFFB1A43F0010300F001F8F0
:1001F000DBE718472C4D00004C4D0000103A24BF9F
:1002000078C878C1FAD8520724BF30C830C144BF7B
:1002100004680C6070470000704700000023002451
:1002200000250026103A28BF78C1FBD8520728BF06
:1002300030C148BF0B6070471FB504F05BFE1FBDA7
:1002400010B510BD00F0F2F81146FFF7F5FF04F00D
:1002500053FB00F010F903B4FFF7F2FF03BC00F00A
:1002600017F900000948804709480047FEE7FEE704
:10027000FEE7FEE7FEE7FEE7FEE7FEE7FEE7FEE756
:1002800004480549054A064B704700000D21000847
:100290009901000850A1002050A7002050A3002081
:1002A00050A3002053EA020C00F069802DE9F04BC6
:1002B0004FF00006002B1FBFB3FA83F503FA05F4D5
:1002C00024FA05F65E4012BF1643B2FA82F502FA2E
:1002D00005F4C5F120051EBF22FA05FC44EA0C0412
:1002E000203556EA044C4FEA144418BF641C4FF002
:1002F00000084FF00009904271EB030C39D300293C
:1003000019BFB1FA81F701FA07F6B0FA80F700FADF
:1003100007F6C7F120071EBF20FA07FC46EA0C06C5
:100320002037B6FBF4FCA7EB0507103F07F01F0BC7
:10033000CBF120062CFA06F60CFA0BFB44BFB346B1
:100340000026202FA4BF5E464FF0000B5BEA060C90
:1003500008BF4FF0010B19EB0B0948EB0608ABFB8C
:10036000027C06FB02CC0BFB03CCC01B71EB0C0127
:10037000C1E70B46024641464846BDE8F08B13B53F
:10038000084318BF4FF0FF300146AFF30080BDE8CF
:100390001C4070474FF000020429C0F0128010F09A
:1003A000030C00F01B80CCF1040CBCF1020F18BF51
:1003B00000F8012BA8BF20F8022BA1EB0C0100F0E4
:1003C0000DB85FEAC17C24BF00F8012B00F8012BB7
:1003D00048BF00F8012B70474FF0000200B51346EC
:1003E00094469646203922BFA0E80C50A0E80C5055
:1003F000B1F12001BFF4F7AF090728BFA0E80C5006
:1004000048BF0CC05DF804EB890028BF40F8042BFE
:1004100008BF704748BF20F8022B11F0804F18BF6B
:1004200000F8012B7047704770477047754600F021
:100430002BF8AE4605006946534620F00700854676
:1004400018B020B5FFF71CFFBDE820404FF00006B4
:100450004FF000074FF000084FF0000BAC46ACE83F
:10046000C009ACE8C009ACE8C009ACE8C00921F09B
:1004700007018D46704710B50446AFF30080204653
:10048000BDE81040FFF7E7BE00487047F8000020C5
:1004900001491820ABBEFEE72600020070470000AD
:1004A000FEE70000002070470020704710B541F2C1
:1004B0008C54C2F2000440F68851C2F2000120467A
:1004C000002201F0F3FF40F28851C2F20001204601
:1004D00001F0DEFF002010BD2DE9F04F81B00A6869
:1004E0008246002A64D040F2581BC2F2000B9BF8EF
:1004F00000209BF801609BF802C09BF80370DBE9C9
:1005000001E441F64C580023C2F2000843F6FF799B
:100510000DE000BF002238466746B4468BF8002045
:100520000D680133AB426646BC46074640D21AF816
:100530000300D2B2022A13D0012A1BD10EF1010509
:10054000044408F80E00CE45CBE90154B2BF0122A5
:1005500002228BF8002038466746B446AE46DFE7F5
:10056000E2B29042D6D141F28850C2F2000001229C
:100570000270CFE7AA2E4FF000028BF801C08BF873
:1005800002708BF8030008BFBCF1BB0FC8D1CC2FA1
:10059000C6D1DD28C4D101224FF0000E8BF8002017
:1005A000CBE901EE4FF0BB0CCC27DD200024B7E7F0
:1005B00041F28C54C2F200042046514601F068FF1B
:1005C000204601F03FFF002001B0BDE8F08F0000A1
:1005D0000020704741F28C52C2F20002D2F8BC22D5
:1005E000D2F81432002B1CBF0120704710B541F225
:1005F0008C54C2F200040A460146204601F056FF20
:100600002046BDE8104001F0D5BF00007047000053
:1006100072B600BFFEE70000B0B5044600F0E6F891
:10062000054640F20000C2F200000078611C18BFCD
:10063000044400BF00F0DAF8401BA042FAD3B0BD7A
:100640002DE9F04F83B000F1200200F13E4741F266
:100650000005009207F1FF77C4F2020507224FEA76
:10066000B726A84208BF042200254FF000084FF02B
:100670000009042E38BF4FEAB72201920AE000BFFA
:1006800009F1010908F10208B9F1100F05F104059B
:1006900000F0A2800F68012202FA09FE17EA0E0A92
:1006A000EED0D1F804C003220CF003077E1E02FA3C
:1006B00008F4012E6FEA040B12D88468CE6804EAAD
:1006C0000B0406FA08F634438460446824EA0E06F4
:1006D000CCF3001404FA09F42643466004E000BF9A
:1006E000032F01D103271EE0C6688C6806EA0B06BB
:1006F00004FA08F42643022FC66014D16FF00302F7
:10070000009E02EA590756F807C005F01C040F22A4
:100710000B69A2402CEA0202A3401A43F251D1F81D
:1007200004C00CF00307026807FA08F302EA0B02A0
:100730001A431CF4403F0260A2D0002243F6440357
:100740000292C4F202031A6843F6004442F4804263
:100750001A601A68C4F2010402F480420292029AFA
:1007600029F003024FF6084C2244CFF6FF7C52F8E2
:100770000C3005F00C070F26BE40B343019E06FA6D
:1007800007F73B4342F80C30A2684B6842EA0A077D
:1007900043F60C4CDE0258BF22EA0A07A760C4F2F7
:1007A000010CDCF800209E0242EA0A0758BF22EA48
:1007B0000A07CCF8007062689E0342EA0A0758BF35
:1007C00022EA0A0767602268DB0342EA0A0758BF89
:1007D00022EA0A07276053E703B0BDE8F08F000064
:1007E000002A08BF09048161704700004AF24C10DA
:1007F000C2F200000068704740F200004AF24C115B
:10080000C2F20000C2F2000100780A6810440860D9
:100810007047000080B543F60040C4F20200016852
:1008200041F400710160016841F480610160016878
:1008300041F480710160032000F086F80F2000F081
:1008400005F800F027F8002080BD000070B540F2E8
:100850000006C2F2000640F224013278C2F2000122
:100860004FF47A730968B3FBF2F20446B1FBF2F17C
:10087000084601F053FB0F2C4FF0010508D838B99A
:100880004FF0FF3021460022002500F031F874605F
:10089000284670BD82B0002043F640010190C4F2AA
:1008A00002014A6842F480424A604A6802F4804287
:1008B0000192019A0090086840F080500860086832
:1008C00000F080500090009802B07047002848BFA8
:1008D000704700F01F01012202FA01F11C2202EA16
:1008E000D0004EF20012CEF200028150704700009C
:1008F00010B54EF60C5CCEF2000CDCF80030C3F301
:10090000022E8EF00704042C28BF0424BEF103033A
:100910004FF0FF3E0EFA04F438BF0023A143994084
:100920000EFA03F39A43114300F00F0200F1604303
:100930000901043A03F564436244002848BF02F108
:100940000C03197010BD00004EF60C51CEF20001E0
:100950000A684FF6FF031A4060F30A2242F08060F3
:1009600040F0FD700860704770470000026800208A
:10097000516270472DE9F041D0F80080D8F824305A
:1009800091B1D8F82870B1F1010C03EB17414FD0A9
:100990005FFA8CF708F58273042F0CF0030E0BD26C
:1009A000002700242BE000BF43EA02410020C8F8E2
:1009B0002810BDE8F08100BF0CF0FC0508F1F4063A
:1009C000002400BF56F8107F44F0020001EB1741ED
:1009D00044F00107FFB253F82770C0B253F820006B
:1009E00001EB174101EB104044F00301C9B253F889
:1009F00021100434E7B2AF4200EB1141E2D1BEF165
:100A0000000F15D053F82700BEF1010F01EB104184
:100A10000ED0601CC0B253F82000BEF1020F01EBF3
:100A2000104105D0A01CC0B253F8200001EB1041CA
:100A300041EA024008EB8C01C1F804010020BDE846
:100A4000F0810000D0F8E00402F0EAB801EBC10246
:100A5000D0F8E03400EB8200026A184602F044B895
:100A600001EBC102D0F8E03400EB8200D0F8602244
:100A7000184602F097B80000D0F8E00402F0D2B8AF
:100A800010B54FFA81FC4FF4157201F00F0EBCF156
:100A9000000F48BF142290F8944402440EEBCE039A
:100AA0004FEAD11C02EB8301012C81F801C002F84E
:100AB00023E004BF022010BD0268012380F89434B3
:100AC0000446104602F0ACFE002084F8940410BDE9
:100AD000B0B5037901F00F029A4284BF0120B0BD86
:100AE0004BB24FF41574002B48BF142400EB040ED6
:100AF00090F8944402EBC2034FEAD11C0EEB830141
:100B0000012C4FF0000481F801C08C700EF82320F6
:100B100004BF0220B0BD0268012380F8943405466A
:100B2000104603F071F9204685F89444B0BD0000EA
:100B300001F00F0101EBC10100EB8100D0F8680268
:100B40007047000010B54FFA81FE01F00F0CBEF1A6
:100B5000000F6FF3DF220CEBCC010DD400EB810E04
:100B600000240EF515718EF855428EF854C2CEF859
:100B70005C228EF8583209E000EB810101F814CFB5
:100B800001244C708A600B71A1F81AC0022B04BFBB
:100B900000224A7190F89424012A04BF022010BD5B
:100BA0000268012380F894340446104602F0AAFC3F
:100BB000002084F8940410BD10B501F00F0E0EEB68
:100BC000CE0100EB81044FF0000CC4F868C284F839
:100BD00055C290F806C004F51571C4F86022C4F837
:100BE0006432BCF1010F84F854E208BFCA610068A6
:100BF000624603F053F9002010BD0000B0B5027941
:100C000001F00F0494424FF001022CD84BB24FF484
:100C10001575002B48BF14254FEAD11C48BF21464B
:100C2000054401EBC10305EB830181F801C090F895
:100C300094C48A70BCF1010F05F8234004BF022060
:100C4000B0BD02680123054680F89434104603F0D5
:100C500005F92CB92868A97905F29C4203F0A6F899
:100C6000002285F894241046B0BD000001F00F0C5E
:100C70000CEBCC0100EB810101F814CF4FF0000C1C
:100C80000B618379C1F814C04FF0010CCA60012BCD
:100C900081F801C008BFCA6180B500681A4603F038
:100CA000FDF8002080BD00002DE9F04F87B00568F9
:100CB0008246284603F00EFB10B107B0BDE8F08F66
:100CC000DAF8000003F034FB0028F6D0D5F8080865
:100CD000C0F30D21DAF80000CAF8D41403F028FBA1
:100CE0000146DAF80000890703D5416901F00201E5
:100CF000416105F50061049103F01AFB0146DAF841
:100D00000000C906059535D5816921F01001816182
:100D10002C6A04F00F0000EBC0000AEB8001C4F362
:100D20004340062801F5157512D002281BD147F65D
:100D3000F07014EA000616D0E968340905982246D6
:100D400003F0FAFAE86800EB1610E86008E000BF6C
:100D500005980AF29C41082203F0EEFAC4F30A1443
:100D6000686920446861DAF80000816941F0100187
:100D70008161059D03F0DCFA000340F1F180DAF8AF
:100D8000000003F0B3FA002800F0EA8006460AF2F9
:100D90009C404FF4306800244FF0000B069019E09F
:100DA00005EB080002218160B80642BF05EB080090
:100DB00020218160B80442BF05EB08004FF40051C8
:100DC00081600BF1010B760808F1200804F124047E
:100DD00000F0C680F007F4D0DAF800005FFA8BF973
:100DE000494603F09DFA0746C00760D005EB0800AE
:100DF00001218160DAF8000008EB0001036C8A68C9
:100E00009AF80650012D25D1150733D4950600F127
:100E10009F8043F20B05C4F65475AB42059D02D387
:100E200012F4004230D10AEB0402D2F8743209699C
:100E30006FF3DF41A3EB0101C2F868129CBBD2F84B
:100E40006432002B00F08A80D2F860020844C2F8B5
:100E5000600228E043F20B05C4F65475FF35AB423F
:100E600018D1059D10040FD4900644BF202088603F
:100E700019E000BF43F20B00C4F65470059D834295
:100E800015D312F4004012D04FF4004088603807A8
:100E90000FD43DE0059D34B9DAF8641219B9002188
:100EA000069A02F083FF50464946FFF7D9FD3807FE
:100EB0002ED505EB080008218160DAF8000043F226
:100EC0000B02056C40448168C4F6547295420BD302
:100ED00011F4004108D04FF400418160504600F009
:100EE00015FD059D0AE000BF504600F00FFD43F2DE
:100EF0000B00C4F654708542059D09D39AF806008C
:100F0000012805D1DAF80000069A012102F04EFF0F
:100F1000F80642BF05EB080010218160B8077FF595
:100F200043AF6869000604D50499486840F48060BE
:100F300048600AEB040090F8571201297FF430AFA3
:100F4000002180F857125046494600F031FB27E750
:100F500020208860059D3807ABD4D9E701219FE7A1
:100F6000DAF80000CDF818A003F0E2F9400340F1F0
:100F7000D3800698006803F0B1F9002800F0CC8017
:100F80000646069805F5106900F1140100F29C4030
:100F9000002703910190CDF8089004E0760807F14E
:100FA000010700F0B980F007F8D006985FFA87FAD9
:100FB0000068514603F0A2F90446C00726D0049AFF
:100FC00007F00F00516B012303FA00F021EA000043
:100FD000506309EB4710836006988079012811D18E
:100FE000039907EBC70001EB8000D0E9021211441E
:100FF000C1603FB9006928B90698019A00680121CB
:1010000002F0D4FE06985146FFF720FD200742BFAC
:1010100009EB471008218160E00642BF09EB471049
:1010200010218160600642BF09EB471040218160BA
:10103000A00716D52846394603F0DEF8039907EBDA
:10104000C70001EB800010F8031F012905D1002122
:1010500001700698514600F0A7FA09EB47100221EB
:10106000816020069AD5039907EBC70001EB800841
:10107000D8E90420824291D30699D8F808300C6848
:10108000111A994238BF0B4604EB4711D1F818C921
:1010900003F1030E1FFA8CF3B3EB9E0F2DD301F572
:1010A000106900BFD8F81020824224D9101A069A7D
:1010B000D8E902B19579584538BF83461FFA8BF3BA
:1010C000204652460095059D03F0DEFBD8F80C0043
:1010D000D8F814105844C8F80C0001EB0B00C8F8FD
:1010E0001400D9F818100BF1030289B2B1EB920F7A
:1010F000D8D2D8F81020DDF8089082423FF64EAFE3
:1011000007F00F00D4F83418012202FA00F021EAA7
:101110000000C4F8340841E7DDF81890D9F8000061
:1011200003F006F9002821D4D9F8000003F000F9F3
:1011300000053AD4D9F8000003F0FAF8C00445D508
:101140000499486820F001004860D9F80000102197
:1011500003F052F899F80400010600F0EC80C1B2E7
:10116000042900F0030035D200219AE00499486870
:1011700020F00100486099F8CC04012808D1002033
:1011800089F8CC0448460021FFF7EEFB03E000BFDE
:10119000484600F09FFBD9F80000416901F000418A
:1011A000416103F0C5F80005C4D504988068C00704
:1011B00002D0484600F0D2FBD9F80000416901F4A2
:1011C0000061416103F0B4F8C004B9D4D9F800005B
:1011D000DDE000BF6FF0600202EA411200234FF62B
:1011E0007F370021EE18C6F80879D6F80059803309
:1011F00025F40015C6F80059C6F8087BD6F8005B40
:101200009A4225F40015C6F8005BD6F8005B01F1A0
:10121000040145F00065C6F8005BC6F82879D6F8E9
:10122000205925F40015C6F82059C6F8287BD6F8B1
:10123000205B25F40015C6F8205BD6F8205B45F04E
:101240000065C6F8205BC6F84879D6F8405925F401
:101250000015C6F84059C6F8487BD6F8405B25F41F
:101260000015C6F8405BD6F8405B45F00065C6F84F
:10127000405BC6F86879D6F8605925F40015C6F8C1
:101280006059C6F8687BD6F8605B25F40015C6F88F
:10129000605BD6F8605B45F00065C6F8605B059D55
:1012A000A0D1002847D005F5106202EB41134FF69C
:1012B0007F374E019F609559059B25F4001503F576
:1012C0003063955103EB4115AF609D59012825F41A
:1012D00000159D519D5945F000659D512BD04E1C28
:1012E00002EB46147501A760545903EB461624F42B
:1012F00000145451B7605F59022827F400175F515A
:101300005F5947F000675F5115D0881C02EB40170A
:101310004FF67F364101BE60575803EB401027F46B
:10132000001757508660585820F4001058505858ED
:1013300040F000605850049F8421F869442240F036
:101340000110F86199F80F0000284FF00B0008BF5A
:10135000142108BF42F22B007B5808BF102218430B
:101360007850B85840F00B00B850386809F29C42E9
:1013700020F4FE603860D9F8000099F8061002F0F9
:1013800015FDD9F80000416901F48051416102F076
:10139000CFFF0146D9F8000089041AD502F0F4F80D
:1013A000D9F8000002F088FFD9F8004089F807005A
:1013B00000F0A0FB99F807200146204603F0D8F979
:1013C000484600F075FAD9F80000416901F400516F
:1013D000416102F0ADFF000706D4D9F8000002F029
:1013E000A7FF00060DD437E0484600F077FAD9F899
:1013F0000000416901F00801416102F099FF000617
:101400002AD50599886920F08000886199F8040040
:10141000022821D309F5157409F11405012640F2BB
:101420007B2704E00136864207F1240714D219F81D
:1014300007100129F6D106F00F0000EBC0023006BC
:10144000D9F8000005EB820158BF04EB820102F0DD
:1014500043FE99F80400E5E7D9F8000002F068FFC0
:10146000C0024BD4D9F8000002F062FF059D800253
:101470007CD599F80410022926D305F5326001398C
:1014800009F51F72012304E02030013902F1240222
:101490001AD007681678012EF6D1B7F1FF3FF3DCBA
:1014A000D9F8D46486EA1747FF07EDD102F8013C6A
:1014B000AF6947F08007AF616F693F06E4D40499D4
:1014C000486840F400704860D9F80000416901F4B0
:1014D0000011416102F02CFF40004DD54846FFF756
:1014E000B1FAD9F80000416901F08041416102F090
:1014F0001FFF40077FF5E1AB45E000BF99F804000E
:10150000022827D3059909F1140401F5126509F1A0
:101510003B064FF00108012706E000BF01372035E8
:10152000874206F1240615D229687278012AF5D17E
:10153000B1F1FF3FF2DC07F00F0000EBC001D9F87A
:10154000000004EB810186F8008002F0C5FD99F8E7
:101550000400E3E7D9F80000416901F4801141611A
:1015600002F0E6FE059D80023FF583AFD9F800004A
:1015700002F0DEFE4000B1D4D9F8000002F0D8FE3F
:1015800040077FF59AABD9F800004468610704D59D
:101590004846FFF771FAD9F80000416821434160DD
:1015A00007B0BDE8F08F0000D0F8E00401F09EBB6A
:1015B000D0F8E00401F0B0BB002804BF0120704760
:1015C000F0B581B00446056890F8950428B900206C
:1015D00084F89404204600F027F90320B5F1A04FC9
:1015E00084F8950404BF0020A071206802F0D6FBA7
:1015F00094E80F00267C009601F0D6FF002840F00A
:1016000000812068002102F0EDFE002840F0F98002
:1016100094F804E0BEF1000F00F0EC800EF0030C33
:10162000BEF1040F4FF0000240D30EF0FC03A4F112
:1016300090000321012500BFCE1E80F8A460A0F811
:10164000BE608E1E80F8C860A0F8E2604E1E80F872
:10165000EC60A0F8066180F81011A0F82A110E1DA8
:10166000013180F8A55080F8A820C0E92B22C0F8ED
:10167000B42080F8C95080F8CC20C0E93422C0F8EA
:10168000D82080F8ED5080F8F020C0E93D22C0F865
:10169000FC2080F8115180F81421C0E94622C0F8DE
:1016A0002021903099423146C6D1F21EBCF1000F84
:1016B00031D004F1140002EBC20100EB81050123DB
:1016C00000F821200021BCF1010F6B706A832971A1
:1016D000C5E9021129611ED0551C05EBC50600EBBA
:1016E0008607BCF1020F7B7000F826507D833971AC
:1016F000C7E9021139610ED0911C01EBC10200EB68
:101700008203012500F8221000205D7059831871B2
:10171000C3E902001861BEF1000F6BD0BEF1040FE7
:101720004FF0000236D30EF0FC000321234600BF29
:10173000CF1E83F854728F1E83F878724F1E83F881
:10174000C0120D1D013183F8552283F85822C3E9D8
:101750009722C3F8642283F8792283F87C22C3E9B4
:10176000A022C3F8882283F89D2283F89C7283F814
:10177000A022C3E9A922C3F8AC2283F8C12283F8CE
:10178000C422C3E9B222C3F8D02290338142294651
:10179000CED1EA1EBCF1000F2CD004F5157002EB7F
:1017A000C20300EB83070021BCF1010F797000F840
:1017B00023203971C7E9021139611BD0531C03EB97
:1017C000C30700EB8706BCF1020F717000F82730E9
:1017D0003171C6E9021131610CD0911C01EBC102DB
:1017E00000EB820300275F7000F822101F71C3E92D
:1017F00002771F6194E80F00277C009702F072F8CF
:1018000030B1022084F89504012001B0F0BD00BF82
:1018100000206074012084F89504206802F052F8DA
:10182000002001B0F0BD0000B0B586B00068002413
:10183000B0F1A04F0594CDE903440294019401D086
:1018400006B0B0BD43F630050094C4F20205286826
:1018500001A940F001002860286800F00100009014
:1018600000984FF4C05001900220CDE902040320FB
:1018700004900A2005900020C4F20200FEF7E0FE6A
:101880006868002140F08000686000946869002268
:1018900040F480406861686900F4804000900098DE
:1018A0004320FFF725F84320FFF710F806B0B0BD3E
:1018B00010B50446C079022818BFFEF7A9FED4F877
:1018C000E004012101F0B0FAD4F8E004BDE81040D2
:1018D00001F05EBAD0F8E00401F08CBAD0F8E00470
:1018E00001F092BA90F89424012A04BF02207047B4
:1018F00010B5012280F89424417402680446104611
:1019000002F024FF002084F8940410BDD0F8E024F5
:1019100000F29C41104601F09DBA000010B504464B
:1019200090F89404012804BF022010BD2068012112
:1019300084F89414C168490606D5617B012903D156
:10194000816B41F48031816302F04EFC206801F02C
:10195000A9FF002084F8940410BD000010B50446CF
:10196000D0F8E00401F0CCFA2068D0F8001E41F075
:101970000101C0F8001EE07A002808BF10BD4EF635
:101980001050CEF20000016841F00601016010BD68
:10199000002804BF012070472DE9F04143F60808F4
:1019A000C4F202080446D8F8F8030D4600F0070018
:1019B000814207D988F8F853D8F8F80300F00700F7
:1019C000A84277D12068810717D5410705D5D8F8F7
:1019D000001041F4E051C8F80010010705D5D8F80F
:1019E000001041F46041C8F80010D8F80010A26857
:1019F00021F0F0011143C8F80010C00740D1D8F819
:101A0000F80300F00700854207D288F8F853D8F8A9
:101A1000F80300F00700A8424CD12068410707D521
:101A2000D8F80010E26821F4E0511143C8F8001022
:101A3000000708D5D8F80000216920F4604040EA8A
:101A4000C100C8F8000000F05BF8D8F8001044F6B8
:101A50000E72C1F30311C0F60002515C40F2240281
:101A600020FA01F140F20400C2F200000068C2F264
:101A700000021160FEF7EAFE0020BDE8F08100BF21
:101A80006068811E022907D258F8081C89015CBFD2
:101A90000120BDE8F08111E0012807D158F8081CA9
:101AA00089035CBF0120BDE8F08107E058F8081CFD
:101AB000890703D40120BDE8F08100BFD8F80010E9
:101AC00021F003010843C8F80000FEF78FFE064628
:101AD00041F28837D8F80000616800F00C00B0EBE4
:101AE000810F8CD0FEF782FE801BB842F2D9032012
:101AF000BDE8F08140F22400C2F2000000687047A7
:101B000010B543F60404C4F202046168C1F3810114
:101B100042F20040C0F2F400DFE801F002040A02E1
:101B200010BD00BF47F64000C0F27D1010BD00BFE1
:101B3000206821682368490247F64001C0F27D1100
:101B400000F03F02C3F388105CBF42F20041C0F2D4
:101B5000F401A1FB00010023FEF7A4FB216802228F
:101B6000C1F3014102EB4101B0FBF1F010BD0000F7
:101B7000002804BF012070472DE9F04182B00446DF
:101B8000007843F60006C007C4F202060CD0B06825
:101B900000F00C00042840F081803068800303D5F9
:101BA0006068002800F06881207880071BD5B06845
:101BB00010F00C0F09D0B06800F00C00082840F0BD
:101BC00087807068400200F183803068800703D509
:101BD000E068012840F050813068216920F0F80069
:101BE00040EAC10030602078000713D42078400715
:101BF0002AD4A569002D00F03A81B06800F00C00ED
:101C0000082840F0A580012D40F00E81012002B08F
:101C1000BDE8F0816069002800F082800020C4F2F5
:101C200047200121C0F8801EFEF7E0FD054600BFF9
:101C3000706F8007DAD4FEF7D9FD401B0228F7D970
:101C4000032002B0BDE8F081306C5FEAC0080AD41E
:101C500000200190306C40F080503064306C00F017
:101C600080500190019847F20007C4F200073868DD
:101C7000C00547D4386840F480703860FEF7B6FD80
:101C8000054600BF3868C0053CD4FEF7AFFD401BD9
:101C90000228F7D9032002B0BDE8F081B06800F057
:101CA0000C00082803D1706840023FF576AF6168E8
:101CB0003068B1F5803F07D0B1F5A02F40F09A8091
:101CC00040F480203060306840F4803030609AE02A
:101CD000E068002840F20000C4F247205CD00121F7
:101CE0000160FEF783FD0546306880073FF574AF5D
:101CF000FEF77CFD401B0228F6D9032002B0BDE8A8
:101D0000F08100BFA168306F012905D0052955D1A8
:101D100040F004003067306F40F00100306756E05B
:101D20000020C4F247200021C0F8801EFEF75EFDAF
:101D3000054600BF706F80077FF558AFFEF756FD70
:101D4000401B0228F6D9032002B0BDE8F08100BF95
:101D50000027C4F2472700203866FEF747FD022D12
:101D600005460DD13068800140F18A80FEF73EFDC6
:101D7000401B02284FF00300F4D902B0BDE8F08107
:101D80003068800173D5FEF731FD401B02284FF00B
:101D90000300F5D9F1E700BF00210160FEF726FD41
:101DA000054600BF306880077FF51DAFFEF71EFDBA
:101DB000401B02284FF00300F4D9DEE720F00100B9
:101DC0003067306F002920F0040030677AD0FEF7CA
:101DD0000DFD054641F28837306F800700F18480A1
:101DE000FEF704FD401BB842F6D9032002B0BDE85F
:101DF000F08100BF20F4803030603068002920F48A
:101E0000802030607AD0FEF7F1FC05463068800310
:101E10003FF5CAAEFEF7EAFC401B6428F6D9032062
:101E200002B0BDE8F08100BF7068E16900F4800293
:101E30008A4221D1216A00F03F028A421CD147F632
:101E4000C071626A0140B1EB821F15D1A16A4FF6E1
:101E5000FF73C903994300F44032A1F580318A42EF
:101E60000AD1E16A00F07060B0EB016F04D100208C
:101E700002B0BDE8F08100BF012002B0BDE8F081F2
:101E800004F11C052FCD084340EA8210D9034FF618
:101E9000FF729143A1F5803140EA0560084370600C
:101EA00001203866FEF7A2FC044600BF30688001BE
:101EB000DDD4FEF79BFC001B02284FF00300F5D990
:101EC0005BE700BFFEF792FC054641F2883700BF92
:101ED000306F800708D5FEF789FC401BB8424FF0F1
:101EE0000300F5D949E700BFB8F1000F3FF581AE17
:101EF000306C20F0805030647BE600BFFEF776FC4B
:101F0000054600BF306880037FF54EAEFEF76EFCDD
:101F1000401B64284FF00300F4D92EE7411E002037
:101F2000B0EB116F1CBF012070474EF21002CEF2D1
:101F3000000251604EF62351CEF20001F0230B70E7
:101F40000721906011607047FEE7000070B586B011
:101F5000002543F630000595CDE90355CDE901553F
:101F60000095C4F20200016840F6000441F004014B
:101F700001600168C4F2020401F0040100910099BB
:101F800000950168002241F08001016001684FF472
:101F9000005601F08001009100990095016841F020
:101FA0000101016000684FF4005100F00100009051
:101FB00000982046FEF714FC0120CDE9020501A996
:101FC000204601960495FEF73BFB06B070BD00006D
:101FD00080B541F28C5040F20801C2F20000C2F21A
:101FE0000001002200F046FD002818BFFEF710FB9C
:101FF00041F28C5040F22801C2F20000C2F200010E
:1020000000F0AAFF002818BFFEF702FB41F28C5037
:1020100040F2C401C2F20000C2F2000100F02CFA4A
:10202000002818BFFEF7F4FA41F28C50C2F200000B
:1020300000F0BCFF002808BF80BDBDE88040FEF76F
:10204000E7BA0000FEE70000FEE7000041F6680086
:10205000C2F20000FEF728BE704700007047000083
:10206000FEF7CABB70B592B006AC20463021FEF731
:10207000B3F9002543F640000595CDE90355CDE9B8
:1020800001550095C4F202000168022641F080511A
:102090000160006800F080500090009847F2000056
:1020A0000095C4F20000016841F4404101600068FD
:1020B00000F4404000900098012006904FF48030DA
:1020C00007904FF480000D9019200E90C020CDE9AC
:1020D0000F060420119020460C96FFF749FD18B119
:1020E00072B600BFFEE700BF0F20CDE901064FF436
:1020F0008050CDE9040501A803210395FFF748FCB2
:1021000010B172B6FEE700BF12B070BD4EF6885037
:10211000CEF20000016841F47001016070470000D8
:10212000D0F8D42200EB820CDCF8C032002B04BFC4
:1021300003207047B0B501F00F0404EB840200EBFC
:10214000820E5EF8142F5AB1D0F8C85204EBC404C2
:1021500005EB8404E469B2FBF4F505FB14229AB1A3
:102160000020C3F81402DCF8C422D2F810C0BCF17D
:10217000000F08BFB0BDD3F808020A4603F504718A
:10218000E0470020B0BD00BF00220023CEF80020B1
:1021900000F0C4FE0020B0BDB0B5D0F8D42200EBF2
:1021A0008202D2F8C0529DB1044600F04DFDD4F831
:1021B000D412C5F80C0204EB8101D1F8C412D5F891
:1021C0000402CA6805F5037190470020B0BD00BF46
:1021D0000320B0BD70B58121044600F073FC0025DA
:1021E0002046012184F8375000F06CFC2046822103
:1021F00084F8775100F066FCD4F8D40204F5307608
:1022000056F8201084F84B50656489B104EB8000C7
:10221000D0F8C40240688047D4F8D40256F82000B1
:1022200001F068F9D4F8D40246F82050C4F8BC5242
:10223000002070BD10B5D0F8D41200EB8100D0F8AA
:10224000C0428CB1D0F8C41259B194F80002FF28F2
:1022500007D08B6894F8012221469847FF2084F824
:102260000002002010BD00BF032010BD014640F257
:10227000A4000A22C2F200000A807047F0B581B0C3
:1022800040F26007C2F2000704463846822100F09F
:102290002FFB06463846012100F02AFB054638464A
:1022A000812100F025FB002E1CBF1021B171002DF3
:1022B0001CBF4021A98000281CBF402181804321F0
:1022C00040F26000C2F20000218001B0F0BD0000C9
:1022D000F0B581B040F26007C2F20007044638460C
:1022E000822100F005FB06463846012100F000FB84
:1022F00005463846812100F0FBFA002E1CBF102154
:10230000B171002D1CBF4FF40071A98000281CBFC3
:102310004FF400718180432140F26000C2F200005E
:10232000218001B0F0BD0000F0B581B040F260073F
:10233000C2F2000704463846822100F0D9FA064668
:102340003846012100F0D4FA05463846812100F0D4
:10235000CFFA002E1CBF1021B171002D1CBF4021EF
:10236000A98000281CBF40218180432140F26000E9
:10237000C2F20000218001B0F0BD00002DE9F04163
:1023800004464FF4077001F0B7F8002850D04FF41E
:1023900007710546FEF720F8D4F8D402402704EB75
:1023A0008000C0F8C052207CC4F8BC52002808BF8E
:1023B0004FF400772046812102223B46022600F09E
:1023C000C1FC4FF001082046012102223B4684F85F
:1023D000378000F0B7FC1020606420468221032281
:1023E000082384F8778100F0ADFCD4F8D4020027EC
:1023F000C5F8047204EB8000D0F8C40284F84B8066
:1024000000688047C5F81472C5F81872D5F8042220
:1024100052B1207C01210028204614BF40234FF4F4
:10242000007300F0A3FC00263046BDE8F08100BF39
:10243000D4F8D402002104EB8000C0F8C0120220BE
:10244000BDE8F081D0F8D41200EB8101D1F8C012C0
:10245000002904BF0320704780B590F810C0D1F860
:10246000042240230121BCF1000F08BF4FF4007388
:1024700000F07CFC002080BD00290FBF0320D0F8B5
:10248000D42200EB8200C0F8C41218BF00207047AD
:10249000D0F8D42200EB8200D0F8C00200280EBF92
:1024A0000320C0F80412002070470000D0F8D43296
:1024B00000EB8300D0F8C00200280FBF0320C0F853
:1024C0000812C0F81022002070470000F0B581B05B
:1024D000D0F8D42200EB8203D3F8C0420022002CB3
:1024E0008DF80320ADF8002060D00D7815F0600263
:1024F00018D0202A58D1CA88002A29D06DB2B5F147
:10250000FF3F2FDD4978402A84F80012214628BF7A
:10251000402284F8012200F099F80024204601B0FE
:10252000F0BD00BF4A780B2A3ED80024DFE802F055
:1025300008063C3C3C3C3C3C3C3C2A38EEE700BFB7
:1025400090F89C22032A2FD16946022221E000BF85
:10255000D3F8C402002283684878002498472046B4
:1025600001B0F0BDD3F8C43206469D684B780F46E3
:1025700018462146A847FA883046072A28BF07226E
:10258000214606E090F89C22032A0DD10DF10301AB
:10259000012200F077F80024204601B0F0BD00BF12
:1025A00090F89C22032AB9D000F044F80324204676
:1025B00001B0F0BDD0F8D41200EB8101D1F8C022F7
:1025C000002A04BF03207047D2F8141200294FF0EC
:1025D000010101D00846704780B5C2F81412D2F844
:1025E0001032D2F808228121836200F097FC00218A
:1025F000BDE880400846704780B5D0F8B8225268E0
:102600009047002818BF032080BD000000207047BD
:102610000020704780B513460A46002100F0A6FB53
:10262000002080BD80B513460A46002100F076FCEC
:10263000002080BD10B58021044600F03DFC2046FE
:102640000021BDE8104000F037BC000080B5134603
:102650000A460321C0F894120021C0F86421C0E9A1
:10266000553300F083FB002080BD000080B50521BC
:10267000C0F8941200210022002300F077FB002014
:1026800080BD000080B513460A460221C0F89412AE
:1026900000214262C0E9053300F040FC002080BD0B
:1026A00080B50421C0F8941200210022002300F01C
:1026B00035FC002080BD000010B540F26814C2F265
:1026C00000040A4602A0214600F054F9204610BD3D
:1026D00043444320436F6E666967000040F2B000D8
:1026E0001222C2F200000A807047000010B540F2CA
:1026F0006814C2F200040A4602A0214600F03AF92A
:10270000204610BD43444320496E74657266616380
:102710006500000040F2D8000422C2F200000A80E6
:102720007047000010B540F26814C2F200040A4677
:1027300002A0214600F01EF9204610BD53544D69F9
:1027400063726F656C656374726F6E6963730000AA
:1027500010B540F26814C2F200040A4602A02146F5
:1027600000F008F9204610BD53544D33322056690D
:10277000727475616C20436F6D506F72740000004D
:1027800047F61020C1F6FF70026883684FF01A0CFC
:102790009B18A1F800C000F0A680B0B54FF0370C30
:1027A0001A0F0CEB13714068B3F1204F38BF02F1E0
:1027B000300140F2DC02C2F20002917019014FF0C8
:1027C000000E0CEB117582F803E0C3F30364B1F162
:1027D000204F38BF04F13005190215710CEB11754B
:1027E00082F805E0C3F30354B1F1204F38BF04F180
:1027F0003005190395710CEB117582F807E0C3F3EE
:102800000344B1F1204F38BF04F1300519041572AB
:102810000CEB117582F809E0C3F30334B1F1204FDA
:1028200038BF04F13005190595720CEB117582F86B
:102830000BE0C3F30324B1F1204F38BF04F130059E
:1028400019061573C3F303140CEB1175B1F1204F86
:102850004FEA037103F00F0382F80DE038BF04F173
:10286000300503F13704957382F80FE0B1F1204F82
:1028700038BF03F13004010F0CEB1073147482F8AD
:1028800011E0B0F1204F38BF01F1300301010CEB32
:102890001174937482F813E0C0F30363B1F1204F15
:1028A00038BF03F1300401021475C0F303530CEB7D
:1028B0001174B1F1204F4FEA003182F815E038BFB2
:1028C00003F130040CEB1173947582F817E0C0F338
:1028D0000340B1F1204F38BF00F13003137682F886
:1028E00019E0BDE8B04040F2DC00C2F200007047E1
:1028F000B0F802C003789C459CBF0020704780B5AB
:1029000008E000BF82788A4208BF80BD73449AB253
:1029100062452DD290F800E070444278052A02D139
:1029200082788A4225D073449AB2624520D290F8C8
:1029300000E070444278052A02D182788A4218D099
:1029400073449AB2624513D290F800E07044427822
:10295000052A02D182788A420BD073449AB262452A
:1029600006D290F800E070444278052ACAD0CDE73C
:10297000002080BD002808BF704710B503783BB326
:1029800000F1020EF44600BF1CF8013C5BB19CF85C
:10299000003043B19CF801302BB19CF802300CF1AF
:1029A000040C002BF0D14FF0000C00BF1EF8013CCE
:1029B00093B19EF800309BB19EF80130A3B19EF810
:1029C00002300CF1040C002B0EF1040EEED10DE0E0
:1029D0004FF0000C0AE000BF4CF0010C06E000BF15
:1029E0004CF0020C02E000BF4CF0030C5FFA8CFCD0
:1029F000022303EB4C03138003220B704A7003780D
:102A0000A3B3023002224FF0000C00BF5FFA82FE37
:102A100051FA82F401F80E3084F801C010F8013C3C
:102A200023B3941C5FFA84FE51FA84F401F80E304B
:102A300084F801C00378CBB1141D5FFA84FE51FA0B
:102A400084F401F80E3084F801C0437873B1941D0A
:102A50005FFA84FE51FA84F401F80E3084F801C064
:102A600083780832002B00F10400CFD1BDE810407C
:102A700070470000002804BF032070470023C0F8FF
:102A8000B832C0F8C4320029C0F8D03218BFC0F83C
:102A9000B412012180F89C12027000F0D9B8000035
:102AA00080B5D0F8C802FEF713F840F20032C1003A
:102AB000C0F2013222FA01F1032888BF0321C8B213
:102AC00080BD000080B5D0F8C802FDF7D9FF40F204
:102AD0000032C100C0F2013222FA01F1032888BF9E
:102AE0000321C8B280BD0000B0B589B190F89C2226
:102AF000032A54D1D0F8B8225269002A4FD00023BB
:102B0000C0F8D4329047002808BF0020B0BD00BFF5
:102B1000D0F8941202293BD18169038C99420FD9D4
:102B2000CA1A416A8261194441620446FFF77AFD7C
:102B3000204600210022002300F018F927E000BF02
:102B400010D142698A420DD3D0F898128A4209D234
:102B50000021002204460025FFF764FDC4F89852C6
:102B6000E6E700BF90F89C12032909D1D0F8B8120B
:102B7000C96829B10022C0F8D422044688472046FB
:102B80008021044600F098F92046FFF76FFD2046AB
:102B900090F8A01200291CBF002180F8A01200208C
:102BA000B0BD000010B579B190F89C22032A22D163
:102BB000D0F8B8229269F2B10023C0F8D43290471D
:102BC000002808BF002010BDD0F89412032912D1AC
:102BD000D0F85811B0F8602191420FD98B1AD0F873
:102BE0006411C0F858311144C0F86411934288BF91
:102BF0001A46FFF70FFD002010BD00BF90F89C1291
:102C0000032909D1D0F8B812096929B10022C0F806
:102C1000D422044688472046FFF742FD002010BD1D
:102C200000207047012180F89C12D0F8B8120029CA
:102C300004BF0020704780B54A680179904700289A
:102C400018BF032080BD0000D0F8C802FDF770BF98
:102C5000017809B10020704710B541F66801C2F251
:102C60000001C1F8E004C0F8C8124FF0A0400860AD
:102C7000042008714FF40070C8800220C1F80900D8
:102C80000020C8810846FEF797FC002818BFFDF712
:102C9000BFFC41F66804C2F2000420468021FDF723
:102CA00065FE204600214022FDF764FE20460121FA
:102CB0008022FDF75FFEBDE8104000207047000055
:102CC000D0F8C80201F07F034AB203EBC30301EB63
:102CD000C10100EB830300EB810000F25620002AC3
:102CE00048BF03F11600007870470000D0F8D422E6
:102CF00000EB8202D2F8B822002A04BF03207047FA
:102D000090F89C32032B05D1126A1AB180B5904716
:102D1000002080BD00207047D0F8D42200EB820252
:102D2000D2F8B822002A04BF0320704790F89C32E2
:102D3000032B05D1526A1AB180B59047002080BD9F
:102D40000020704780B59446D0F8C8021A46634602
:102D5000FDF7F8FE40F20032C100C0F2013222FA63
:102D600001F1032888BF0321C8B280BD80B5D0F827
:102D7000C802FDF721FF40F20032C100C0F201326B
:102D800022FA01F1032888BF0321C8B280BD0000E8
:102D9000F0B581B00126002580F89C62C0F89452FD
:102DA00004464560D0F8B802C4F8A45284F8A05292
:102DB00040B1426832B120460021904705460028C4
:102DC00018BF032520460021002240234027FFF79B
:102DD000B9FF204680210022402384F86361A4F8D3
:102DE0006071FFF7AFFF84F823602846278401B0A5
:102DF000F0BD000090F89C12042904BF90F89D12C9
:102E000080F89C120020704790F89C12032908D18A
:102E1000D0F8B81229B1C96919B180B58847BDE8A1
:102E20008040002070470000024600201174704767
:102E300080B5D0F8C802FEF755FD40F20032C1005F
:102E4000C0F2013222FA01F1032888BF0321C8B27F
:102E500080BD0000B0B500F2AA240546204600F06F
:102E60006FF80121C5F8941295F8AA12B5F8B0329E
:102E700001F01F02022AC5F898320FD0012A07D0AC
:102E800092B928462146BDE8B04000F091B800BF95
:102E900028462146BDE8B04000F0F4BA2846214655
:102EA000BDE8B04000F040BA01F080012846BDE81E
:102EB000B04000F001B8000080B5D0F8C802FDF7BE
:102EC0009DFE40F20032C100C0F2013222FA01F14F
:102ED000032888BF0321C8B280BD000080B5D0F8A8
:102EE000C802FEF71BFD40F20032C100C0F2013201
:102EF00022FA01F1032888BF0321C8B280BD000077
:102F0000014690F89C02042204281CBF91F89C0200
:102F100081F89D02002081F89C22704780B5D0F88E
:102F2000C802FDF7A3FE40F20032C100C0F2013238
:102F300022FA01F1032888BF0321C8B280BD000036
:102F40000A7802704A7842704A8842808A88828071
:102F5000C988C1807047000010B582B004460020C7
:102F6000ADF80600B1B1D4F8D42204F52E70C4F83F
:102F7000B81250F82200C16A21B10DF1060088474D
:102F8000C4F8D002D4F8D8020130C4F8D802002026
:102F900002B010BD032002B010BD0000D0F8B8226E
:102FA000002A04BF0020704712681047FFF796BF41
:102FB0000A78C2F34112531E022B07D2D0F8D42252
:102FC00000EB8202D2F8B8229268104770B582B046
:102FD000002A40F0CB804A78092A00F2C780DFE857
:102FE00002F0052FC557C56183C51B4190F89C228F
:102FF000013A022A00F2BA80C988022940F0B6805C
:10300000D0F8A4120322002908BF0122014641F88A
:103010000C2F02226AE100BFC988012940F0A68076
:1030200090F89C124A1E022A80F09A8000240146E1
:1030300041F8084F0122FFF725FB204602B070BD82
:1030400090F89C22013A022A00F2908049880024DC
:10305000012940F09480C0F8A442FFF721FB2046EC
:1030600002B070BD498840F26415C2F2000511F04B
:10307000FE0F297052D080210446FFF71DFF204625
:103080000021FFF719FF0324204602B070BD00BFE6
:103090004A88022A60D0012A68D10121C0F8A4120E
:1030A0002DE100BF8A88002A60D1CA88002A5DD13C
:1030B0004D887F2D5AD890F89C12032956D0E9B23A
:1030C00080F89E520446FFF7B3FE20462646FFF7DF
:1030D000E7FA002D14BF0220012086F89C0200248C
:1030E000204602B070BD00BF4A884FF0FF3303EBAB
:1030F00012230026062BADF8066000F2FD80DFE803
:1031000013F007004F004100FB00FB005F006D0063
:103110000D46D0F8B4120A68D7E000BF90F89C22A0
:10312000032A6BD0022A40F091800A0600F0E78063
:1031300001F00102C9B242600546FFF72FFF0028E7
:1031400000F0A480044628468021FFF7B5FE2846FB
:103150000021FFF7B1FE73E0497980F8A012CEE0BC
:10316000032903D1011D0122C0E000BF80210446D4
:10317000FFF7A2FE204600210024FFF79DFE204617
:1031800002B070BDD2B2052A00F2B680DFE802F0CC
:1031900004948C90889800BFD0F8B422526892E0D2
:1031A0000D46017C0446D0F8B80200290CBF816AA4
:1031B000C16A0DF106008847014602201CE000BFED
:1031C000027C002A40F098800446D0F8B8020D46F0
:1031D000416B0DF1060088477CE000BF027C002AAD
:1031E00040F08A800446D0F8B8020D46016B0DF11C
:1031F000060088470146072048706CE00A0635D073
:10320000426801F001018A4200F07980D1B204469F
:10321000FFF7F2F92978204661602546FFF7BEFEE8
:10322000002800F07F80044628468021FFF744FEF6
:1032300028460021FFF740FE29792846FFF7DCF9F0
:10324000022085F89C02204602B070BD8021044611
:10325000FFF732FE20460021FFF72EFE2978204698
:10326000FFF7CAF90324204602B070BD022180F89E
:103270009C120024002144600546FFF7BDF9284652
:10328000FFF70EFA204602B070BD00BF2846FFF7D8
:1032900007FA032085F89C020024204602B070BD86
:1032A000D0F8B42252690EE0D0F8B422D2680AE015
:1032B000D0F8B422126906E0D0F8B422926802E095
:1032C000D0F8B4229269BAB10D460446007C0DF1E3
:1032D000060190470146EA8882B1BDF80630ABB1DD
:1032E000934238BF1A46ADF806202046FFF7CAF9C8
:1032F0000024204602B070BD044608E02046FFF7D7
:10330000CFF90024204602B070BD00BF20468021C6
:10331000FFF7D2FD20460021FFF7CEFD0024204616
:1033200002B070BD2846EAE770B50A780D46C2F3D0
:1033300041120979531E022B044607D22046FFF79B
:1033400065F9002855D0002070BD00BF9ABB687891
:1033500040B3012814D003282DD194F89C020328EF
:1033600012D1688838B911F07F0004D0E88810B90C
:103370002046FFF7A1FD2046FFF792F9002070BD1F
:1033800094F89C02032821D0022814D1480612D0B8
:103390002046FFF791FD20468021FFF78DFD00209C
:1033A00070BD00BF94F89C0203282FD0022808BFEC
:1033B0005FEA416056D020468021FFF77DFD204620
:1033C0000021FFF779FD002070BD00BF688800284C
:1033D000B9D10E46480603D020463146FFF760FBC0
:1033E0002046FFF75DF920463146FFF70FF9002828
:1033F000A9D1D4F8B80282680020002AC4F8D40207
:10340000A1D020462946BDE87040104701F00F00CA
:1034100000EB8000802904EB80002CBF90F8230093
:1034200090F863010028C6D001F07F0000EB800017
:1034300004EB800000F1140501EB810004EB800037
:10344000802938BF00F5AA75480605D02046FFF749
:1034500037FC08B1012000E0002005F10E01A8733F
:103460000AE000BF08064FF0140058BF4FF4AA70DE
:103470002118002001F80E0F20460222FFF702F962
:10348000002070BDB0B50A7802F06002602A08D052
:1034900090F89C22013A022A03D88A8812F0FE0F83
:1034A0000AD080210446FFF707FD204600210024B2
:1034B000FFF702FD2046B0BD0C46D1B20546FFF72E
:1034C000A7F808B10320B0BDD5F8B8128A68002A61
:1034D000F8D000212846C5F8D41221469047E1884B
:1034E0000446002908BF002CE4D12846FFF7D8F88D
:1034F0000020B0BD7047000040F26830C2F200000A
:103500007047000010B50A784B78D0F81CE802F03C
:103510000F04012B4FEA421C18D10123A34043EAB8
:103520000E03C0F81C386044D0F800391B0428D4BE
:103530008B6800F51060097904686FF3DF2343EAB4
:10354000814144EA8252114316E000BF4FF48032B9
:10355000A24042EA0E02C0F81C286044D0F8002BBA
:1035600012040ED48A6800F5306009796FF3DF2207
:10357000036842EA8141194341F0805141F400411E
:103580000160002010BD00000146D0F8000940F2A3
:10359000FF729043C1F80009D1F8040840F480722A
:1035A0000020C1F80428704782B002F47F42B2F5CF
:1035B000807F40F09980826B4FF6BF7322F4803297
:1035C0008263C268CFF6BD731A40C260029BC268B4
:1035D000DBB222F44012012BC26003D1C26842F474
:1035E0008012C26000220092009A01320092009A7A
:1035F000B2F1706F00F2F0800269002A21D4009AC3
:1036000001320092009AB2F1706F00F2E580026917
:10361000002A16D4009A01320092009AB2F1706F1B
:1036200000F2DA800269002A0BD4009A013200927B
:10363000009AB2F1706F00F2CF800269B2F1FF3FE1
:10364000D2DC0A220092009AAAB100BF009A013A85
:103650000092009A7AB1009A013A0092009A52B10F
:10366000009A013A0092009A2AB1009A013A009217
:10367000009A002AEAD1026942F001020261009A2E
:1036800001320092009AB2F1706F00F2A5800269D7
:10369000D20720D0009A01320092009AB2F1706FE6
:1036A00000F29A800269D20715D0009A0132009286
:1036B000009AB2F1706F00F28F800269D2070AD0CF
:1036C000009A01320092009AB2F1706F00F2848089
:1036D0000269D207D3D14FF0000C01F47F01B1F59C
:1036E000803F40F099808FE0C26842F04002C260A3
:1036F00000220192019A01320192019AB2F1706F97
:1037000072D80269002A1ED4019A01320192019AEC
:10371000B2F1706F68D80269002A14D4019A01329C
:103720000192019AB2F1706F5ED80269002A0AD440
:10373000019A01320192019AB2F1706F54D8026974
:10374000B2F1FF3FD6DC0A220192019AAAB100BF72
:10375000019A013A0192019A7AB1019A013A0192D1
:10376000019A52B1019A013A0192019A2AB1019A41
:10377000013A0192019A002AEAD1026942F001025B
:103780000261019A01320192019AB2F1706F2BD855
:103790000269D2071DD0019A01320192019AB2F159
:1037A000706F21D80269D20713D0019A01320192B9
:1037B000019AB2F1706F17D80269D20709D0019A45
:1037C00001320192019AB2F1706F0DD80269D207ED
:1037D000D7D14FF0000C09E04FF0030C01F47F014A
:1037E000B1F5803F18D10FE04FF0030C826B13F45A
:1037F0007F4F14BF22F4803242F48032826301F49E
:103800007F01B1F5803F07D1816841F006018160F9
:10381000816841F020018160604602B0704700007D
:1038200010B54A7891F800E047F6000CCEF6334C1C
:10383000012A4FEA4E1227D10244D2F8001902F5AC
:103840001063B1F1FF3F4FF0010407DC196841F04C
:1038500000611960196841F0804119600EF00F0194
:10386000D0F83C2804FA01F18A43C0F83C28D0F88B
:103870001C2822EA0101C0F81C18186800EA0C0193
:103880000020196010BD00BF811801F53063D1F828
:10389000001B0CF1707CB1F1FF3F4FF48034DDDC94
:1038A000D4E700000146D0F8000E20F00300C1F874
:1038B000000ED1F8040820F002020020C1F804280C
:1038C000704700000146D0F8000E20F00300C1F858
:1038D000000ED1F8040840F002020020C1F80428CC
:1038E000704700002DE9F04F86B0C3F30745164638
:1038F0008E460021C0F80411C0F80811C0F80C1160
:10390000C0F81011C0F81411C0F81811C0F81C113B
:10391000C0F82011C0F82411C0F82811C0F82C11EB
:10392000C0F83011C0F83411C0F83811C0F83C119B
:1039300045B1816B21F400118163816B41F4002159
:1039400011E000BFD0F8041841F00201C0F80418DB
:10395000816B41F400118163816B21F4002181634B
:10396000816B21F4802106F47F4281630021B2F54E
:10397000807FC0F8001E07D1D0F80028B1EB1E6F81
:1039800008D1C0F8002809E0D0F8001841F0030180
:1039900002E000BF42F00101C0F8001800210491CC
:1039A0000499013104910499B1F1706F52D8016901
:1039B00000291ED40499013104910499B1F1706F6A
:1039C00048D80169002914D404990131049104995B
:1039D000B1F1706F3ED8016900290AD40499013110
:1039E00004910499B1F1706F34D80169B1F1FF3FCE
:1039F000D6DC002104914FF4846101610499013106
:103A000004910499B1F1706F24D8016989061DD51C
:103A10000499013104910499B1F1706F1AD80169C8
:103A2000890613D50499013104910499B1F1706F9D
:103A300010D80169890609D50499013104910499C6
:103A4000B1F1706F06D801698906D7D44FF0000A2A
:103A500002E000BF4FF0010A0021059105990131F4
:103A600005910599B1F1706F4ED8016900291ED4F6
:103A70000599013105910599B1F1706F44D801693B
:103A8000002914D40599013105910599B1F1706FA0
:103A90003AD8016900290AD405990131059105999F
:103AA000B1F1706F30D80169B1F1FF3FD6DC002170
:103AB0000591102101610599013105910599B1F137
:103AC000706F21D80169C90620D50599013105918A
:103AD0000599B1F1706F17D80169C90616D5059916
:103AE000013105910599B1F1706F0DD80169C906D1
:103AF0000CD50599013105910599B1F1706F03D885
:103B00000169C906D7D401E04FF0010A5FFA8EF9C6
:103B10004FF00008B9F1000FC0F81088C0F8148801
:103B2000C0F81C8800F00D81CDF80CA0CDE9015E35
:103B3000D0F800194FF0006404EA11114FF67F35F8
:103B4000B9F1010BC0F80019C0F81089C0F8085984
:103B500074D0A9F1020103290BF0030A04D2012158
:103B6000BAF1000F40D169E000962BF0030700F591
:103B7000186600234FF0904C4FF67F324FF0000E46
:103B800056F8601C0EF1040E0CEAE17146F8601C58
:103B900046F8503C46F8582C56F8401C77450CEA3D
:103BA000E17146F8401C46F8303C46F8382C56F88F
:103BB000201C0CEAE17146F8201C46F8103C46F83F
:103BC000182C31680CEAE17131603361B26006F1A2
:103BD0008006D5D1009E0EF101014FF67F354FF0E2
:103BE0000064BAF1000F29D000F510634F01B4460C
:103BF000DE594FF0904202EAE67603EB4111DE51C6
:103C0000664600274FF67F33BAF1010F0F618B60D4
:103C100014D00E6ABAF1020F02EAE67266460A6230
:103C20000F638B620AD00A6C4FF0904303EAE27292
:103C30000A6400220A654FF67F328A64D0F8001BBE
:103C4000BBF1000F04EA1111C0F8001B4FF0000196
:103C5000C0F8101BC0F8085BDDE9015EDDF80CA0C0
:103C60006FD0A9F1020103290BF0030C04D201214A
:103C7000BCF1000F3BD164E0A94600962BF0030590
:103C800000F5386600234FF090474FF67F32002151
:103C900056F8604C043107EAE47446F8604C46F884
:103CA000503C46F8582C56F8404C8D4207EAE474D4
:103CB00046F8404C46F8303C46F8382C56F8204C34
:103CC00007EAE47446F8204C46F8103C46F8182CF5
:103CD000346807EAE47434603361B26006F1800648
:103CE000D6D1009E01314D46BCF1000F29D000F520
:103CF00030634F013446DE594FF0904202EAE676D7
:103D000003EB4111DE51264600274FF67F33BCF10D
:103D1000010F0F618B6014D00E6ABCF1020F02EA32
:103D2000E67226460A620F638B620AD00A6C4FF075
:103D3000904303EAE2720A6400220A654FF67F327A
:103D40008A64D0F810181EF47F0F21F48071C0F837
:103D500010186FF08041C0F81880416103D181696B
:103D600041F010018161816943F60002C8F23C0212
:103D7000114316F47F0F816103D0816941F008017E
:103D80008161012D05D1816941F0804141F004013B
:103D90008161504606B0BDE8F08F000001468068A2
:103DA00020F0010200208A6070470000D0F840C077
:103DB00043F20B03C4F654739C4503D3D0F8003B85
:103DC000002B1ED40023C0F8103BD0F8103B012973
:103DD00043F40023C0F8103BD0F8103B43F0180325
:103DE000C0F8103BD0F8103B43F0C043C0F8103B84
:103DF00007D1C0F8142BD0F8001B41F08021C0F887
:103E0000001B0020704700004A780B78012A4FEA17
:103E1000431210440ED1D0F8002922F40012C0F849
:103E20000029097901F0FE01022914D100F5106082
:103E30000DE000BFD0F8002B22F40012C0F8002BD8
:103E4000097901F0FE01022905D100F53060016811
:103E500041F0805101600020704700000A784B78E3
:103E60005101012B084407D1D0F80019002900F5B1
:103E7000106107D50BE000BFD0F8001B002900F54A
:103E8000306104D41AB1086820F0804008600868E6
:103E900040F4001200200A6070470000F0B54B7833
:103EA000002591F800C04FF6FF76CFF6F875012B8C
:103EB000CEF207062CD10C6900EB4C1EDEF810790F
:103EC000002C0EF510634FD03D401D611D69BCF103
:103ED000000F05EA06051D618E6800F09B80A5199C
:103EE000013DB5FBF6F50026C1F6F8761F6906EA36
:103EF000C5463E431E610E79012E40F098801E6932
:103F000026F0C0461E614FF0C04606EA45758BE0BC
:103F100000EB4C13D3F8107B4FF6FF742F40C3F81F
:103F2000107BD3F8107BC0F207043740C3F8107B36
:103F30008D680E69BCF1000F03F530633CD0002E94
:103F40003ED07719013FB7FBF5F740F2000CBEB247
:103F50006E430E62C1F6F87C1D690CEAC7472F4319
:103F600026401F6133E000BF07EA06041C611C699C
:103F700044F400241C611C6925400024012A1D61B1
:103F80005DD000F510634FEA4C169F5947F0044787
:103F90009F510F79012F33D1D0F80878F558FF05DC
:103FA0004FF0805758BF4FF000572F43002AF7506B
:103FB00060D00020F0BD00BF002E18BF0D610D6263
:103FC0001F6905EA040637431F614FF400261F6985
:103FD000012A47EA06071F6103D1CA68002A18BFF1
:103FE0005A61097901293DD1D0F808081968C0053E
:103FF0004FF0805058BF4FF00050084331E000BFF1
:10400000002CD6D00CF00F01012202FA01F100F6CB
:10401000340329E0B44205D90E614FF4002534463B
:1040200002E000BF4FF400251E6935431D6125469F
:104030001E696FF3DF453543012A1D61A1D1CA69AD
:10404000002A18BFCEF81429097901290AD1D0F81D
:104050000818DEF80009C9054CBF40F0805040F058
:10406000005018604FF004411868084318600020A1
:10407000F0BD00BFA2B2002A9BD0D61C4FF0FF3388
:10408000C96803EB960300F580504FEA0C32032B0E
:10409000C6F381030ED3B70827F003060F68043E6A
:1040A00017504F6817508F681750CF6801F11001F3
:1040B0001750F3D1002B3FF47CAF0F68012B8750D2
:1040C0003FF477AF4F68022B87503FF472AF896897
:1040D00081500020F0BD000081B0002200924A789B
:1040E0000978012A4FEA41113AD100F5106250587F
:1040F000B0F1FF3F3ADC885842F2107340F00060A4
:104100008850885840F080408850009801300090D6
:104110000098984264D85058B0F1FF3F26DC0098D0
:1041200001300090009898425AD85058B0F1FF3FA3
:104130001CDC0098013000900098984250D85058EC
:10414000B0F1FF3F12DC00980130009000989842D7
:1041500046D85058B0F1FF3F4FF00000D5DD3CE0AD
:1041600000F530625058B0F1FF3F03DD002001B090
:10417000704700BF885842F2107340F000608850CA
:10418000885840F080408850009801300090009896
:10419000984225D85058B0F1FF3FE7DC0098013035
:1041A0000090009898421BD85058B0F1FF3FDDDCDA
:1041B0000098013000900098984211D85058B0F102
:1041C000FF3FD3DC0098013000900098984207D858
:1041D000505800284FF00000D6D401B0704700BFFF
:1041E000012001B0704700000146806840F00102E4
:1041F00000208A607047000081B000220092009A7F
:1042000001320092009AB2F1706F51D80269002A0F
:104210001ED4009A01320092009AB2F1706F47D812
:104220000269002A14D4009A01320092009AB2F175
:10423000706F3DD80269002A0AD4009A01320092B8
:10424000009AB2F1706F33D80269B2F1FF3FD6DC49
:104250008901002220310092016100990131009111
:104260000099B1F1706F23D8016989061DD50099B5
:10427000013100910099B1F1706F19D80169890677
:1042800013D50099013100910099B1F1706F0FD8E9
:104290000169890609D50099013100910099B1F1B0
:1042A000706F05D801698906D7D4002001B0704726
:1042B000032001B070470000D0F8080800F00601A4
:1042C00080074FF0020058BF0F20002908BF0846A2
:1042D00070470000406900F001007047D0F81818DE
:1042E000D0F81C08084080B270470000D0F81818B9
:1042F000D0F81C080840000C70470000D0F810C827
:10430000D0F8343801F00F0223FA02F2D20100EBA8
:104310004110D2B2D0F8080942EA0C0108407047B7
:1043200000EB4111D1F8081BD0F814080840704781
:10433000416980690840704710B5930802F0030E88
:104340002CD05A1E032A03F0030C0FD323F00303CF
:104350004FF480528458043B0C6084584C6084585D
:104360008C608458CC6001F11001F3D1BCF1000FD6
:1043700014D04FF4805284580B46BCF1010F43F81F
:10438000044B05D11946BEF1000F0AD11EE000BF53
:104390008258BCF1020F4A601AD10831BEF1000FF9
:1043A00014D04FF4805280580A46BEF1010F02F833
:1043B000010B04BF104610BD020ABEF1020F4A7085
:1043C00004BF881C10BD000C88700331084610BD66
:1043D0004FF4805282588A600C31BEF1000FE0D158
:1043E000F4E70000B0B50446C068002920F0C040E2
:1043F000E06000F09980012940F0B080E0680A2573
:1044000040F00050E0600A20FCF706F954F8140F61
:10441000C00740F09C800A20FCF7FEF82068C00727
:1044200040F09E800A20FCF7F7F82068C00740F0B3
:10443000A5800A20FCF7F0F82068C00740F0AC80A7
:104440000A20FCF7E9F82068C00740F0B3800A2092
:10445000FCF7E2F82068C00740F0BA800A20FCF7B9
:10446000DBF82068C00740F0C1800A20FCF7D4F8D0
:104470002068C00740F0C8800A20FCF7CDF820680B
:10448000C00740F0CF800A20FCF7C6F82068C007BC
:1044900040F0D6800A20FCF7BFF82068C00740F043
:1044A000DD800A20FCF7B8F82068C00740F0E480FF
:1044B0000A20FCF7B1F82068C00740F0EB800A2022
:1044C000FCF7AAF82068C00740F0F2800A20FCF749
:1044D000A3F82068C00740F0F9800A20FCF79CF898
:1044E0002068C00740F000810A20FCF795F820689A
:1044F000C00740F007810A20FCF78EF82068C0074B
:1045000040F00E810A20FCF787F82068C00740F0D1
:1045100016810A20FCF780F82068C825A5F1C8009C
:10452000B0FA80F04009B0BDE0680A2540F0804054
:10453000E0600A20FCF770F854F8140FC00706D0AA
:104540000A20FCF769F82068C00711D11425A5F1ED
:10455000C800B0FA80F04009B0BD00BF0120B0BD76
:104560001425A5F1C800B0FA80F04009B0BD00BF25
:104570000A20FCF751F82068C00707D11E25A5F1D5
:10458000C800B0FA80F04009B0BD00BF0A20FCF7B7
:1045900043F82068C00707D12825A5F1C800B0FA64
:1045A00080F04009B0BD00BF0A20FCF735F8206854
:1045B000C00707D13225A5F1C800B0FA80F0400944
:1045C000B0BD00BF0A20FCF727F82068C00707D15C
:1045D0003C25A5F1C800B0FA80F04009B0BD00BF8D
:1045E0000A20FCF719F82068C00707D14625A5F175
:1045F000C800B0FA80F04009B0BD00BF0A20FCF747
:104600000BF82068C00707D15025A5F1C800B0FA03
:1046100080F04009B0BD00BF0A20FBF7FDFF206815
:10462000C00707D15A25A5F1C800B0FA80F04009AB
:10463000B0BD00BF0A20FBF7EFFF2068C00707D11D
:104640006425A5F1C800B0FA80F04009B0BD00BFF4
:104650000A20FBF7E1FF2068C00707D16E25A5F10E
:10466000C800B0FA80F04009B0BD00BF0A20FBF7D7
:10467000D3FF2068C00707D17825A5F1C800B0FA9C
:1046800080F04009B0BD00BF0A20FBF7C5FF2068DD
:10469000C00707D18225A5F1C800B0FA80F0400913
:1046A000B0BD00BF0A20FBF7B7FF2068C00707D1E5
:1046B0008C25A5F1C800B0FA80F04009B0BD00BF5C
:1046C0000A20FBF7A9FF2068C00707D19625A5F1AE
:1046D000C800B0FA80F04009B0BD00BF0A20FBF767
:1046E0009BFF2068C00707D1A025A5F1C800B0FA3C
:1046F00080F04009B0BD00BF0A20FBF78DFF2068A5
:10470000C00707D1AA25A5F1C800B0FA80F040097A
:10471000B0BD00BF0A20FBF77FFF2068C00707D1AC
:10472000B425A5F1C800B0FA80F04009B0BD00BFC3
:104730000A20FBF771FF2068C0077FF4EAAEBE25B0
:10474000A5F1C800B0FA80F04009B0BD0246D0F82B
:10475000000801F07F0120F4FE60C2F80008D2F8E2
:10476000000840EA01110020C2F80018704700005C
:10477000022A02465FD145F24030CFF6277043F25D
:1047800000530844C0F20C03984203D24FF4705017
:1047900053E000BF41F64060CFF61B7044F2402367
:1047A0000844C0F20F03984202D24FF4605044E034
:1047B000A1F5740044F68073A0F51050C0F2120306
:1047C000984203D24FF4505037E000BFA1F18370FC
:1047D0004DF22063A0F5E740C0F21303984203D2E4
:1047E0004FF4405029E000BF4BF26060CFF6E56027
:1047F0004EF260330844C0F21603984202D24FF4DE
:1048000030501AE04DF20030CFF6CE6047F24073E0
:104810000844C0F21B03984202D24FF420500CE02F
:1048200045F6C030CFF6B36049F2C0130844C0F279
:10483000210398420AD24FF41050D16821F47051EC
:10484000D160D16801430020D1607047A1F1B770F9
:1048500047F22053A0F55850C0F23803984203D2D3
:104860004FF40050E9E700BF45F2E040CFF6596051
:1048700049F6E0430144C0F241034FF4C05099426D
:1048800038BF4FF4E050D8E710B5DDF808C0BCF1F0
:10489000000F2CD15BB303F1030E4FF0FF3303EB9A
:1048A0009E0300F580541203032BCEF3810C0FD32B
:1048B0004FEA9E0323F003030868043B1051486845
:1048C000105188681051C86801F110011051F3D1DE
:1048D000BCF1000F0BD00868BCF1010FA05006D04E
:1048E0004868BCF1020FA0501CBF8868A05000208F
:1048F00010BD0000FEE7000040F60004C4F2020410
:10490000FBF788FFFDF7AEFBFDF720FBFDF760FB33
:1049100041F2885741F64C5546F24C16C2F2000758
:104920004FF00008C2F20005C2F2000638780028F5
:10493000FCD020464FF400510022FBF751FF2846DF
:1049400000F00EF830464FF48041FBF743FE20465E
:104950004FF400510122FBF743FF87F80080E5E7A1
:104960002DE9F04F81B02DED068B86B046F24C1A42
:1049700045F64C7545F64C599FEDCB8A9FEDCB9A89
:1049800083460021C2F2000AC2F200050427C2F2E7
:104990000009B6EE00AA0CE00299DDF80CB0DDF8D3
:1049A00004A001310BF5006B08290AF5006A00F03C
:1049B0009B8246F24C12C2F20002029102EBC1212C
:1049C0004FF000080491CDF804A0CDF80CB00DE034
:1049D00005984FF48071FBF7DDFC08F101080BF13D
:1049E000100BB8F1080F0AF5807AD5D004984FF46F
:1049F000007100EB082005902846FBF7EDFC002035
:104A00001BF800200BEB000135F812308030013329
:104A100025F812304A78B0F5006F35F8123003F1FE
:104A2000010325F812308A7835F8123003F10103BA
:104A300025F81230CA7835F8123003F1010325F851
:104A400012300A7935F8123003F1010325F81230DB
:104A50004A7935F8123003F1010325F812308A79CA
:104A600035F8123003F1010325F81230CA7935F810
:104A7000123003F1010325F812300A7A35F81230AA
:104A800003F1010325F812304A7A35F8123003F1A8
:104A9000010325F812308A7A35F8123003F1010348
:104AA00025F81230CA7A35F8123003F1010325F8DF
:104AB00012300A7B35F8123003F1010325F8123069
:104AC0004A7B35F8123003F1010325F812308A7B56
:104AD00035F8123003F1010325F81230C97B35F89F
:104AE000112002F1010225F8112089D14FF6006C46
:104AF000CFF6FF7C002061466A18B2F80032052B21
:104B000022BF18440438A2F80072B2F80232052B12
:104B100022BF18440438A2F80272B2F80432052BFE
:104B200022BF18440438A2F80472B2F80632052BEA
:104B300022BF18440438A2F80672B2F80832052BD6
:104B400022BF18440438A2F80872B2F80A32052BC2
:104B500022BF18440438A2F80A72B2F80C32052BAE
:104B600022BF18440438A2F80C72B2F80E32052B9A
:104B700022BF18440438A2F80E72B2F81032052B86
:104B800022BF18440438A2F81072B2F81232052B72
:104B900022BF18440438A2F81272B2F81432052B5E
:104BA00022BF18440438A2F81472B2F81632052B4A
:104BB00022BF18440438A2F81672B2F81832052B36
:104BC00022BF18440438A2F81872B2F81A32052B22
:104BD00022BF18440438A2F81A72B2F81C32052B0E
:104BE00022BF18440438A2F81C72B2F81E32052BFA
:104BF00022BF18440438A2F81E7220317FF47CAF23
:104C000056E000BF010A0022B0F5807F38BF0121C5
:104C100004E000BF0432B2F5807F49D001280FDBE9
:104C200035F81230032B0BD8C3F10406B14238BF5C
:104C30000E46864228BF06463344801B25F81230B4
:104C4000012805EB42030DDB5E88032E0AD8C6F16E
:104C50000404A14238BF0C46844228BF04462644BF
:104C6000001B5E8001280DDB9E88032E0AD8C6F14A
:104C70000404A14238BF0C46844228BF044626449F
:104C8000001B9E800128C5DBDE88032EC2D8C6F13A
:104C90000404A14238BF0C46844228BF044626447F
:104CA000001BDE80B6E700BF0000804300007F43AA
:104CB0000128A7DA2B880020A9F800302A1851888B
:104CC00096880B4409EB00014B803344D6888B80D7
:104CD00033441689CB80334456890B8133449689FB
:104CE0004B813344D6898B813344168ACB8133443C
:104CF000568A0B823344968A4B823344D68A8B82FF
:104D00003344168BCB823344568B0B833344968BC0
:104D10004B833344D68B8B833344168C528CCB839A
:104D2000334422300B841344B0F5FF7F4B84C5D14C
:104D3000614609EB0102B2F8000298BBB2F8020228
:104D400080BBB2F8040268BBB2F8060250BBB2F8EE
:104D5000080238BBB2F80A0220BBB2F80C0208BB4A
:104D6000B2F80E02F0B9B2F81002D8B9B2F81202D5
:104D7000C0B9B2F81402A8B9B2F8160290B9B2F8E4
:104D8000180278B9B2F81A0260B9B2F81C0248B930
:104D9000B2F81E0230B92031CBD10020B0EE480A63
:104DA0000AE000BFB0F5807F3FF412AEC0F580711D
:104DB00000EE101AB8EEC00AA9F11001002200BFDF
:104DC00031F8103F09EB42061B1A01EE103AB8EE1B
:104DD000C11A81EE001A73881B1A02EE103AB8EE5F
:104DE000C22A82EE002A0AEB020321EE091A31EEF2
:104DF0000A1ABDEEC11A11EE104A0AF80240B48830
:104E000022EE091A241A02EE104AB8EEC22A82EEE5
:104E1000002ACC8831EE0A1A241A03EE104AB8EEA2
:104E2000C33A83EE003A0C89BDEEC11A241A04EE8F
:104E3000104A11EE104A5C70B8EEC41A22EE092A2C
:104E400032EE0A2ABDEEC22A12EE104A9C70748914
:104E500023EE092A81EE001A32EE0A2A241ABDEE48
:104E6000C22A03EE104AB68912EE104AB8EEC32ADF
:104E700082EE002A361A03EE106ACE89B8EEC33AE3
:104E800083EE003A361A04EE106AB8EEC44A84EE95
:104E9000004A21EE091A31EE0A1ABDEEC11A11EECE
:104EA000106A22EE091A31EE0A1ABDEEC11ADC7040
:104EB00011EE104A23EE091A31EE0A1ABDEEC11A9C
:104EC0001E7111EE106A24EE091A31EE0A1ABDEEB7
:104ED000C11A08329E7111EE106AB2F5807F5C71C2
:104EE000DE717FF46DAF78E506B0BDEC068B01B0E6
:104EF000BDE8F08FF1EE100A4FF6FF71C0F2C0313D
:104F000020EA010040F04070E1EE100A7047000016
:104F10000000000000000102030406070809000069
:104F2000404F000800000020F8000000FC010008CD
:104F300038500008F800002058A600001C020008A5
:104F40000100000010000000DD2600081527000801
:104F5000252700085127000881270008B9260008E6
:104F6000ED2600080024F4007D230008D521000868
:104F7000CD2400080000000035220008212100088F
:104F8000992100080000000000000000000000005F
:104F9000D12200087D220008292300086D22000884
:104FA00009024300020100C03209040000010202AC
:104FB000010005240010010524010001042402025F
:104FC00005240600010705820308001009040100FA
:104FD000020A0000000705010240000007058102E7
:104FE000400000000A06000200000040010000002E
:104FF0001201000202020040830440570002010235
:1050000003010000AD040008A9040008A50400087D
:10501000D9040008D1050008040309041A0300009C
:105020000000000000000000000000000000000080
:08503000000000000000000078
:040000050800019955
:00000001FF
